:020000040800F2
:10000000A009002045010008F903000829040008A0
:100010002D04000831040008350400080000000029
:10002000000000000000000000000000390400088B
:100030003B040008000000003D0400083F040008E5
:100040005F0100085F0100085F0100085F01000810
:100050005F0100085F0100085F0100084504000817
:1000600047040008490400085F0100085F01000818
:100070005F0100085F0100085F0100085F010008E0
:100080005F0100085F0100085F0100085F010008D0
:100090005F0100085F0100085F01000843040008D9
:1000A0005F0100085F0100085F0100085F010008B0
:1000B0005F010008410400085F0100085F010008BB
:1000C0005F0100085F0100085F0100085F01000890
:1000D0005F010008FB0300085F0100085F010008E2
:1000E0005F0100085F0100085F0100085F01000870
:1000F0005F0100085F0100085F0100085F01000860
:100100005F0100084B0400085F0100085F01000860
:100110005F0100085F0100085F0100085F0100083F
:100120005F0100085F0100085F0100085F0100082F
:10013000DFF80CD005F006FC004800474D0200082F
:10014000A00900200648804706480047FEE7FEE772
:10015000FEE7FEE7FEE7FEE7FEE7FEE7FEE7FEE777
:100160008F2B00083101000870B504460D46E1B23E
:100170006D4802F0C1F900BF80216B4802F02AFAF5
:100180000028F9D0204670BD08B54FF4C06002F0D9
:1001900009F827208DF8000000208DF801000120CB
:1001A0008DF802008DF80300684602F000F808BDE3
:1001B0001FB54FF4165000900020ADF80400ADF8C4
:1001C0000600ADF80800ADF80C000C20ADF80A00F0
:1001D0006946554802F097F8012240F225515248ED
:1001E00002F029F90121504802F019F940214E4846
:1001F00002F0FDF91FBD08B54FF48060ADF80000B6
:1002000003208DF8020018208DF803006946474846
:1002100001F0A8FC4FF40060ADF8000004208DF858
:1002200003006946414801F09DFC08BD10B502F08D
:10023000AEFC0121082001F051FF0121880401F0EA
:100240005AFF0121084601F049FF10BDACB02C2235
:1002500037A121A805F052FB802101A805F067FB1A
:10026000FFF7E4FFFFF7C7FFFFF7A2FFFFF78CFFE1
:1002700000F0E4FE394908700846007818B938A043
:1002800005F072FB02E03BA005F06EFB01223EA1EF
:100290003E4803F08BFE0D280BD13DA005F064FB1A
:1002A0000022114638A004F03CFE10B93DA005F034
:1002B0005BFB022241A1444803F0A6FE43490860CB
:1002C0000846006800282DD1414B2A2221A93E482A
:1002D00004F04DF83D4908603B4804F08CF93DA01E
:1002E00005F042FB384940A005F09CF915E00020DC
:1002F000374908600B46802201A9334803F05EFFAE
:100300003249086021A93AA005F02EFB2F48006869
:1003100010B92F48006800B900E0E8E700BF2A489C
:1003200004F069F900BFFEE700480040000C0140FE
:10033000796F20796F20796F20796F20726170203A
:100340006F66204368696E6121207777772E7A780F
:100350006B6A6D63752E636F6D00000000000020F6
:100360005344BFA8B3F5CABCBBAFB3C9B9A6210DEE
:100370000A0000005344BFA8B3F5CABCBBAFCAA76C
:10038000B0DC210D0A000000303A000050000020CF
:10039000C3BBD3D0CEC4BCFECFB5CDB3A1A3A1A364
:1003A0000D0A0000B4B4BDA8CEC4BCFECFB5CDB319
:1003B000B3C9B9A6A3A10D0A00000000303A2F640A
:1003C0006B2E74787400000084020020040000206A
:1003D000080000200D0ACEC4BCFEB4F2BFAAB3C907
:1003E000B9A60D0A000000004845484544410000F8
:1003F0000D0A202573000000704710B540F225510A
:10040000144802F0FDF870B1124802F079F8044681
:100410002146104802F070F800BF80210D4802F01C
:10042000D9F80028F9D010BD00BFFEE700BFFEE7F5
:1004300000BFFEE700BFFEE7704770477047704798
:100440007047704770477047704710B501F0F4FA75
:1004500010BD00000038014008B5002002F069FA24
:10046000002002F069FA02F039FA00214FF48060AE
:1004700001F027FE4FF4F850ADF8000004208DF88D
:1004800003006946FA4801F06DFB0420ADF8000056
:100490006946F84801F066FB08BD10B5F64802F061
:1004A000DBF910BD30B58BB005460C46F34802F0C1
:1004B000E7F90021F24802F0B4F9F2480090019502
:1004C00000200290A0080390002004908020059056
:1004D0008000069080000790002008904FF40050A4
:1004E000099000200A906946E54802F06FF9012161
:1004F000E34802F096F90BB030BD30B58BB005463D
:100500000C46DE4802F0BCF90021DD4802F089F912
:10051000DC480090019510200290A0080390002074
:1005200004908020059080000690800007900020B5
:1005300008904FF40050099000200A906946D04876
:1005400002F044F90121CE4802F06BF90BB030BD46
:1005500008B50121302001F0C1FD4FF4F850ADF88D
:10056000000003208DF8020018208DF80300694672
:10057000BF4801F0F7FA0420ADF800006946BD4815
:1005800001F0F0FA0121880201F09BFD0121022017
:1005900001F097FD08BD014600BFBA488038406BA6
:1005A00000F045000028F8D040F2FF50B54A803AEC
:1005B00090631046406908221040C0B270472DE990
:1005C000FC4107460D4600260024002000900190C3
:1005D0000820AD4908601020486040208860002055
:1005E000C8604FF480600861084602F0C5F9102029
:1005F000FFF7D1FF044614B12046BDE8FC81A348B3
:1006000000880004A04908603720486040208860C6
:100610000020C8604FF480600861084602F0ACF921
:100620003720FFF7B8FF04460CB12046E5E74FF04E
:10063000FF30974908600820486030208860022019
:10064000C8600020086101204861084602F0BDF939
:1006500000208D49086033204860402088600020D9
:10066000C8604FF480600861084602F085F93320C5
:10067000FFF791FF04460CB12046BEE70CE04FF4B3
:10068000001002F0F0F938B102F0C1F94DF826007F
:10069000761C012E00D907E07A488038406B40F282
:1006A0002A6108400028EAD000BF082002F0DBF9E8
:1006B00028B1082002F0E1F9042420469DE7022039
:1006C00002F0D1F928B1022002F0D7F90224204625
:1006D00093E7202002F0C7F928B1202002F0CDF9DD
:1006E0000624204689E74FF4007002F0BCF930B1CF
:1006F0004FF4007002F0C1F9072420467DE740F274
:10070000FF5002F0BAF900980006009901F47F4109
:1007100040EA0120009901F47F0140EA112000998C
:1007200040EA1160686001980006019901F47F4178
:1007300040EA0120019901F47F0140EA112001996A
:1007400040EA11602860204657E77CB50546002442
:1007500000200090019002F02DF900F0007010B11F
:100760000E2420467CBD4949098888B26946FFF7B6
:1007700026FF04460CB12046F4E7012D36D101983E
:1007800000F4802000282ED04048008800043E4914
:10079000086037204860402088600020C860A802B8
:1007A0000861084602F0E8F83720FFF7F4FE044637
:1007B0000CB12046D6E70220334908600620486085
:1007C000402088600020C8604FF4806008610846BF
:1007D00002F0D2F80620FFF7DEFE04460CB12046F8
:1007E000C0E72046BEE725242046BBE7019800F479
:1007F000803078B3254800880004234908603720FA
:100800004860402088600020C8604FF48060086124
:10081000084602F0B1F83720FFF7BDFE04460CB1E0
:1008200020469FE7002018490860062048604020C5
:1008300088600020C8604FF480600861084602F0BC
:100840009BF80620FFF7A7FE04460CB1204689E777
:10085000204687E7FFE72524204683E770B5044656
:1008600000250C480068032816D12725284670BDAE
:1008700000100140001401400020001000F00010A2
:100880004404024080800140440500201000002004
:10089000580500200C000020F748006838B1F648E1
:1008A0000068012803D0F448006802282ED1B4F56E
:1008B000805F02D127252846D9E7B4F5006F14D10F
:1008C0000120FFF742FF054605BB0120EB490875F3
:1008D00000200860486088604FF40060C860002015
:1008E0000861084602F008F810E00020FFF72DFF2D
:1008F00005465DB90120E14908750020086048609F
:100900008860C8600861084601F0F6FF2846AEE737
:1009100070B504460025DA4804600720D8494860CD
:10092000402088600020C8604FF48060086108465D
:1009300002F022F80720FFF72EFE0546284670BD7C
:1009400030B5014600200022CB4B1B7881F84E3099
:10095000CC4B1B88A1F84C30CB4B1B681A0E93096B
:100960000B70C2F383034B7002F003038B70C64B12
:100970001B68C3F30742CA70C34B1B88C3F307222B
:100980000A71C14B1A784A715B681A0E1301CB8049
:10099000BD4B5B68C3F30742CB8843EA1213CB809D
:1009A00002F00F030B72B84B9B88C3F30722D309E5
:1009B0004B72C2F380138B72C2F34013CB72C2F33B
:1009C00000130B7300234B73AB4B1B681BB1AA4B7B
:1009D0001B68012B3CD193071B0D0B61AA4B1A79A5
:1009E0000B6943EA82030B61A74B9B681A0E0B69E4
:1009F00043EA92130B61C2F3C2030B7502F00703C3
:100A00004B75A14B9B68C3F3074253098B75C2F327
:100A10008203CB7593075B0F0B769B4B1B89C3F34C
:100A200007220B7E43EAD2130B760B695B1C4B64E7
:100A30000C7E4B6CA41C0125A5406B434B640C7AC7
:100A40000123A3408B64D1E9113463434B6421E05B
:100A5000894B1B68022B1DD18B4B1A7993069B0A7D
:100A60000B61894B9B681A0E0B6943EA02230B61E9
:100A7000854B9B68C3F307420B6913430B61824BA1
:100A80001B89C3F307220B695B1CDB044B644FF427
:100A900000738B64C2F3801301F8193F93065B0E59
:100AA0004B70794B1A7A4B7843EAD2134B7002F0B1
:100AB0007F038B70744BDB681A0ED309CB70C2F3C3
:100AC00041130B71C2F382034B7193071B0F8B71A0
:100AD0006D4BDB68C3F307428B7943EA92138B714A
:100AE000C2F34013CB7100230B7202F001034B726F
:100AF000654B9B89C3F30722D3098B72C2F3801322
:100B0000CB72C2F340130B73C2F300134B73C2F3E7
:100B100081038B7302F00303CB735B4B1A7B530887
:100B20000B7401234B74594B1B681A0ECA74193984
:100B3000564B1B68C3F307421402CC85534B1B88EA
:100B4000C3F30722CB8D1343CB85504B1A78140681
:100B50000C635B681A0E0B6B43EA02440C634B4B4D
:100B60005B68C3F307420B6B43EA02240C63474BF9
:100B70009B88C3F307220B6B13430B63434B1A7918
:100B800034235A54414B9B681A0E35235A543F4B19
:100B90009B68C3F3074214068C633C4B1B89C3F369
:100BA00007228B6B43EA02448C63384B1A7A8B6BB7
:100BB00043EA02248C63354BDB681A0E8B6B1343BC
:100BC0008B63324BDB68C3F307423C235B5C43EA35
:100BD00012143C235C5413071C0DCC872B4B9B89B0
:100BE000C3F30722CB8F1343CB87284B1A7B5408C0
:100BF00040235C54012441235C5430BD70B5002572
:100C00002348446B01E02248446B04F0450000286F
:100C1000F9D004F0040028B10325042001F02DFFD1
:100C2000284670BD04F0010028B10125012001F023
:100C300024FF2846F5E740F2FF5001F01EFF28464A
:100C4000EFE72DE9F04106460F464FF00008104847
:100C5000456B01E00E48456B05F045000028F9D0D2
:100C600005F00400B0B14FF00308042001F005FFC7
:100C70004046BDE8F08100000C0000202C0500205B
:100C80004405002010000020AC040020BC0400201B
:100C90000080014005F0010030B14FF00108012053
:100CA00001F0EBFE4046E4E701F080FEB04203D0E5
:100CB0004FF010084046DCE740F2FF5001F0DDFE47
:100CC000002001F077FE044604F4604018B9200CBF
:100CD00038804046CDE704F4005008B11320C8E73F
:100CE00004F4804008B11020C3E704F4004008B1C8
:100CF0000F20BEE74046BCE738B500240120009035
:100D000001F025FE10B92524204638BDF7480068BB
:100D1000042828D00020F649086002204860C0203E
:100D200088600020C8604FF480600861084601F0C8
:100D300023FEFFF763FF04460CB12046E5E70020E1
:100D400001F038FEEB490860042001F033FEE94968
:100D50004860082001F02EFEE64988600C2001F072
:100D600029FEE449C860E148006858B1DF480068DE
:100D7000012807D0DD480068062803D0DB4800685A
:100D8000022816D10020DA4908600320486040207C
:100D900088600020C8604FF480600861084601F058
:100DA000EBFD69460320FFF74CFF04460CB12046DB
:100DB000ABE7CE48006804282ED0BDF80000CE492D
:100DC0000860BDF800000004C949086009204860B7
:100DD000C02088600020C8604FF480600861084629
:100DE00001F0CAFDFFF70AFF04460CB120468CE76C
:100DF000002001F0DFFDC1490860042001F0DAFDA8
:100E0000BE494860082001F0D5FDBC4988600C202F
:100E100001F0D0FDB949C8600024204675E770B5DF
:100E20000025B748446B01E0B548446B04F0450029
:100E30000028F9D004F0040028B10325042001F0B3
:100E40001CFE284670BD40F2FF5001F016FE2846F9
:100E5000F8E770B500264FF48035A948446B02E0EE
:100E60006D1EA748446B04F0450008B9002DF7D16A
:100E700015B104F0040028B10326042001F0FDFDA3
:100E8000304670BD04F0400028B10026402001F03B
:100E9000F4FD3046F5E73046F3E770B500254FF432
:100EA000803400E0641E24B1802001F0DCFD0028C5
:100EB000F8D014B90325284670BD40F2FF5001F068
:100EC000DCFD2846F8E72DE9F04100240026002546
:100ED0000027A046B2208B490875002008604860B2
:100EE0008860C8600861084601F006FD032001F033
:100EF00023FD012001F01DFD00207D4908604860B0
:100F00008860C8604FF480600861084601F034FDD5
:100F1000FFF7C3FF044614B12046BDE8F0814FF44B
:100F2000D570734908600820486040208860002020
:100F3000C8604FF480600861084601F01DFDFFF7AE
:100F400088FF04462CB90120684908604FF08048AA
:100F500012E0002066490860372048604020886021
:100F60000020C8604FF480600861084601F004FD6D
:100F70003720FFF710FB044600205D49086037204A
:100F80004860402088600020C8604FF4806008619D
:100F9000084601F0F1FC3720FFF7FDFA0446002C6B
:100FA0004AD136E00020524908603720486040208E
:100FB00088600020C8604FF480600861084601F036
:100FC000DBFC3720FFF7E7FA04460CB12046A4E724
:100FD0004D4848EA00004649086029204860402002
:100FE00088600020C8604FF480600861084601F006
:100FF000C3FCFFF714FF04460CB120468DE7002028
:1010000001F0D8FC0646012080EAD67080F0010786
:101010006D1C1FB94FF6FF708542C3D34FF6FF70AA
:10102000854202D31B24204677E706F08040061E47
:1010300002D002202D49086020466EE710B500243A
:10104000FFF786FA01F04AFCFFF73DFF04460CB1BA
:10105000204610BDFFF750FE04460CB12046F8E7CD
:101060000120284908750020086048608860C86031
:101070000861084601F040FC1CB92448FFF760FCF9
:10108000044634B92149B1F84C100804FFF740FC7C
:10109000044624B94FF40060FFF7E0FB0446204605
:1010A000D7E770B5044600251348008800041449AA
:1010B000886040F24D40C8600D20FFF76CFA05468D
:1010C0000DB1284670BD0E48406920602846F9E7FA
:1010D00008B5002000906846FFF7E3FF08B1FF2045
:1010E00008BD0098C0F34320FAE700000C00002080
:1010F00044050020BC04002010000020AC040020A7
:10110000008001402C05002000001080DC0400203D
:1011100010B50424FFF7DCFF0446042C01D10020A5
:1011200010BDFF2C01D10220FAE70120F8E710B52D
:101130000024002001F000FC204610BD70B50446DC
:1011400000250026002001F035FC00F0007010B1F1
:101150000E25284670BD4020FC49086010204860DC
:10116000402088600020C8604FF480600861084615
:1011700001F002FC1020FFF70EFA05460DB12846DB
:10118000E8E7F34800880004F04908603720486029
:10119000402088600020C8604FF4806008610846E5
:1011A00001F0EAFB3720FFF7F6F905460DB12846B6
:1011B000D0E74FF0FF30E7490860402048606020EA
:1011C00088600220C860002008610120486108464C
:1011D00001F0FBFB0020DD4908600D204860402045
:1011E00088600020C8604FF480600861084601F004
:1011F000C3FB0D20FFF7CFF905460DB12846A9E73F
:101200000EE04FF4004001F02EFC48B1002604E04F
:1012100001F0FDFB44F82600761C082EF8D320349C
:10122000CD48406B40F22A6108400028E9D00820F0
:1012300001F019FC28B1082001F01FFC0425284604
:1012400088E7022001F00FFC28B1022001F015FC14
:10125000022528467EE7202001F005FC28B1202049
:1012600001F00BFC0625284674E74FF4007001F0EE
:10127000FAFB30B14FF4007001F0FFFB0725284660
:1012800068E703E001F0C3FB2060241D4FF4001069
:1012900001F0E9FB0028F5D140F2FF5001F0EDFB31
:1012A000284657E770B5044600260025AB48FFF7EF
:1012B00045FF06460EB1304670BDA8480078850946
:1012C0002570A6480078C0F340156570A34885785E
:1012D00028026080A148C5786088284360809F48C4
:1012E0000579280660609D484579606840EA0540B8
:1012F00060609A488579606840EA05206060974898
:10130000C5796068284360609448057A2572457AFB
:101310006572807A0509A5729048C57A2802A08175
:101320008E48057BA0892843A0818C48407B850896
:10133000A5738A48407B00F00305E5733046BBE7A0
:101340002DE9F04107460D46144600260020844949
:10135000087084490860844908607F49C8628348EE
:101360000068022801D104026D0A78480460102048
:1013700076494860402088600020C8604FF4806053
:101380000861084601F0F8FA1020FFF704F9064654
:1013900016B13046BDE8F0814FF0FF306D4908606E
:1013A00008464460902088600220C86000200861E0
:1013B00001204861084601F008FB644805601120DF
:1013C00062494860402088600020C8604FF4806017
:1013D0000861084601F0D0FA1120FFF7DCF8064654
:1013E0000EB13046D6E70121080201F0B5FA01201E
:1013F00001F0BFFA21463846FFF754F83046C9E7F6
:101400002DE9F04180460D4614461E460027002077
:10141000534908705349086001205349086000206F
:101420004D49C86251480068022801D104026D0A82
:1014300046480460102045494860402088600020EC
:10144000C8604FF480600861084601F095FA1020EA
:10145000FFF7A1F8074617B13846BDE8F0814FF015
:10146000FF303C49086006FB04F04860902088602B
:101470000220C8600020086101204861084601F090
:10148000A4FA324805601220304948604020886044
:101490000020C8604FF480600861084601F06CFAD3
:1014A0001220FFF778F807460FB13846D5E701213B
:1014B000080201F051FA012001F05BFA06FB04F189
:1014C0004046FEF7EFFF3846C7E710B5002400BFDF
:1014D000FEF7E3FF30B92348006818B920480078C8
:1014E0000028F5D01E48007810B11D48007810BDC6
:1014F0002046FCE72DE9F04107460D46144600263C
:1015000000201749087017490860174908601249F8
:10151000C86216480068022801D104026D0A0B480F
:101520000460102009494860402088600020C8609D
:101530004FF480600861084601F01EFA1020FFF7A2
:101540002AF80646A6B13046BDE8F08144050020E1
:10155000100000205805002000800140CC0400202D
:10156000180000201C000020140000200C000020A7
:10157000FE4805601820FD49486040208860002032
:10158000C8604FF480600861084601F0F5F9182042
:10159000FFF701F806460EB13046D5E74FF0FF30B1
:1015A000F349086008464460902088600020C860C5
:1015B000086101204861084601F007FA012108028C
:1015C00001F0CAF921463846FEF797FF012001F0E5
:1015D000D0F93046B8E72DE9F84380460F46154666
:1015E0001E46002400200090E2490870E24908608D
:1015F0000120E24908600020E149C862E148006832
:10160000022801D105027F0AD84805601020D74979
:101610004860402088600020C8604FF48060086106
:10162000084601F0A9F91020FEF7B5FF044614B1F1
:101630002046BDE8F883D44800880004CB49086000
:1016400037204860402088600020C8604FF48060E8
:101650000861084601F090F93720FEF79CFF044628
:101660000CB12046E5E7C14806601720BF49486035
:10167000402088600020C8604FF480600861084600
:1016800001F07AF91720FEF786FF04460CB12046D8
:10169000CFE7B64807601920B44948604020886009
:1016A0000020C8604FF480600861084601F064F9CA
:1016B0001920FEF770FF04460CB12046B9E74FF041
:1016C000FF30AB49086006FB05F048609020886059
:1016D0000020C860086101204861084601F075F9E2
:1016E0000121080201F038F9012001F042F906FB5E
:1016F00005F14046FEF701FF20469AE710B50024A9
:1017000000BFFEF7CAFE30B99B48006818B9994877
:1017100000780028F5D09748007810B195480078F7
:1017200010BD40F2FF5001F0A8F92046F8E79448B8
:10173000406B00F4405008B1012070470020FCE7E6
:1017400010B5002400208E49886040F24C40C860EB
:101750000C20FEF720FF0446204610BD7CB5044651
:1017600000250020019000908748008800047F49F0
:1017700008600D204860402088600020C8604FF459
:1017800080600861084601F0F7F87D48406B0090E2
:1017900002E07B48406B0090009800F04500002874
:1017A000F7D0009800F0040028B10325042001F0D0
:1017B00064F928467CBD009800F0010028B101259D
:1017C000012001F05AF92846F4E701F0EFF8009003
:1017D00000980D2802D010252846EBE740F2FF5074
:1017E00001F04BF9002001F0E5F801900198C0F3F9
:1017F0004320207065490198084008B92846D9E778
:10180000019800F0004008B11C20D3E7019800F0D7
:10181000804008B10920CDE7019800F0005008B1E0
:101820000A20C7E7019800F0805008B10B20C1E7FB
:10183000019800F0006008B10C20BBE7019800F0AF
:10184000806008B10D20B5E7019800F0807008B104
:101850000E20AFE7019800F4000008B10F20A9E7BF
:10186000019800F4800008B11020A3E7019800F46B
:10187000001008B111209DE7019800F4801008B114
:10188000122097E7019800F4002008B1132091E797
:10189000019800F4802008B114208BE7019800F42F
:1018A000003008B1152085E7019800F4803008B1B8
:1018B00016207FE7019800F4004008B1172079E76F
:1018C000019800F4804008B1182073E7019800F4F3
:1018D000005008B119206DE7019800F0080008B128
:1018E0001A2067E7284665E72DE9FC4105460E46C4
:1018F0000024002700200190009025484068202106
:1019000001EA105018B925242046BDE8FC811C4886
:101910004068C0B2801C1F49B1FBF0F0019000206C
:1019200001F048F800F0007010B10E242046ECE7FA
:1019300014480068022801D16D0A760A114800682F
:1019400038B110480068012803D00E48006802280A
:1019500042D1064805602020044948604020886044
:101960000020C8604FF48060086115E04405002045
:1019700058050020180000201C0000201400002042
:10198000008001400C0000201000002008E0FFFD56
:10199000AC040020C0D40100084600F0EDFF202078
:1019A000FEF7F9FD04460CB12046AEE73848066064
:1019B000212037494860402088600020C8604FF4EB
:1019C00080600861084600F0D7FF2120FEF7E3FDA4
:1019D00004460CB1204698E700202D4908602620D7
:1019E0004860402088600020C8604FF48060086133
:1019F000084600F0C1FF2620FEF7CDFD04460CB1DD
:101A0000204682E7002700E07F1C01988742FBD335
:101A10006846FFF7A3FE044603E06846FFF79EFE14
:101A200004463CB99DF800000728F6D09DF8000058
:101A30000628F2D0204668E710B51648006801284D
:101A40000BD100201449886040F24C40C8600C2043
:101A5000FEF7A1FD1149087002E000200F4908704F
:101A60004FF4807001F016F800214FF4807000F000
:101A700073FF01200A4908600848007810BD01463C
:101A8000002002E04910421CD0B20129FAD170476F
:101A900044050020140000200080014018000020B0
:101AA0001C00002010B50446CC48844208D1012116
:101AB000042000F02DFB0021042000F029FB46E06B
:101AC000C748844208D10121082000F021FB0021F1
:101AD000082000F01DFB3AE0C248844208D10121F1
:101AE000102000F015FB0021102000F011FB2EE06B
:101AF000BD48844208D10121202000F009FB0021CB
:101B0000202000F005FB22E0B848844208D10121E2
:101B1000402000F0FDFA0021402000F0F9FA16E024
:101B2000B348844208D10121802000F0F1FA00215D
:101B3000802000F0EDFA0AE0AE48844207D101218E
:101B4000801500F0E5FA0021A01500F0E1FA10BDC3
:101B500010B50121084600F0DBFA0021012000F059
:101B6000D7FA10BD2DE9F0410246002500260020DD
:101B700000230024002791F803C00CF00F0591F812
:101B800003C00CF0100CBCF1000F03D091F802C0A0
:101B90004CEA050591F800C0BCF1000F31D0146883
:101BA00000202BE04FF0010C0CFA00F3B1F800C05C
:101BB0000CEA03069E4220D183004FF00F0C0CFA72
:101BC00003F7BC4305FA03FC4CEA040491F803C094
:101BD000BCF1280F06D14FF0010C0CFA00FCC2F842
:101BE00014C00AE091F803C0BCF1480F05D14FF0D2
:101BF000010C0CFA00FCC2F810C0401C0828D1D31C
:101C00001460B1F800C0BCF1FF0F34DD546800204F
:101C10002EE000F1080C4FF0010808FA0CF3B1F8BF
:101C200000C00CEA03069E4221D183004FF00F0C46
:101C30000CFA03F7BC4305FA03FC4CEA040491F8E0
:101C400003C0BCF1280F05D100F1080C08FA0CF80C
:101C5000C2F8148091F803C0BCF1480F07D100F11D
:101C6000080C4FF0010808FA0CF8C2F81080401C6C
:101C70000828CED35460BDE8F0814FF6FF71018093
:101C8000022181700421C1707047024600209368D0
:101C90000B400BB1012000E000207047014688682E
:101CA00080B2704702460020D3680B400BB1012080
:101CB00000E0002070470146C86880B270470161AB
:101CC0007047416170470AB1016100E041617047AE
:101CD000C16070474FF480320A4382618161826142
:101CE00082698269704702460020434B18684FF6AC
:101CF0008073184040EA021008433F4B1860704759
:101D00003E49C8617047F0B50A460023002400210F
:101D1000002500F00046B6F1004F02D1364EF169C1
:101D200001E0354E7168C0F3034583B200F44016FC
:101D3000B6F5401F08D121F070612F4E766826F06D
:101D400070662D4F7E6012E000F48016B6F5801F9D
:101D500006D1032606FA05F4A14341F0706106E0BE
:101D6000460D360103FA06F6B14341F0706122B127
:101D7000460D360103FA06F6314300F00046B6F18F
:101D8000004F02D11C4EF16101E01B4E7160F0BDAD
:101D900030B500228B071C0F0F2303FA04F2164BF9
:101DA00008338C1053F824309343134C08348D10AF
:101DB00044F8253023468C1053F824308C07240F28
:101DC00000FA04F423430C4C08348D1044F82530F9
:101DD00030BD0A49DC31086070470000000801404E
:101DE000000C0140001001400014014000180140A7
:101DF000001C014000200140000001400000204282
:101E0000DF48006840F00100DD490860084640688E
:101E1000DC490840DA49486008460068DA49084069
:101E2000D74908600846006820F48020086008460A
:101E3000406820F4FE0048604FF41F00886070473F
:101E4000CF49096821F48031CD4A116011460968F3
:101E500021F480211160B0F5803F03D0B0F5802FD0
:101E60000ED106E0C649096841F48031C44A1160C8
:101E700007E0C349096841F4A021C14A116000E0AC
:101E800000BF00BF704710B50146002200230020AC
:101E90004A11012A02D1BA4C236806E0022A02D173
:101EA000B74C236A01E0B64C636A01F01F020124BB
:101EB00094401C400CB1012000E0002010BD38B55A
:101EC000002000900024002500BF3120FFF7DBFF39
:101ED00005460098401C00900098B0F5A06F01D016
:101EE000002DF2D03120FFF7CEFF08B1012400E031
:101EF0000024204638BD01460020A14A106820F089
:101F0000F80040EAC10010607047A04908607047BF
:101F1000024600209A4B586820F47C1042EA0103E4
:101F20001843974B586070479849086670470146B8
:101F30000020934A506820F0030008435060704727
:101F40008F48406800F00C007047014600208C4A22
:101F5000506820F0F00008435060704701460020B0
:101F6000874A506820F4E06008435060704701469B
:101F70000020834A506820F4605040EAC10050605D
:101F8000704729B17E4A527A02437D4B5A7204E06F
:101F90007B4A527A82437A4B5A7270477B49D831D6
:101FA0000860704701460020754A506820F44040A0
:101FB0000843506070470021714A20321170704A06
:101FC00082F82010012802D004280AD104E001215F
:101FD0006B4A2032117005E00521694A20321170E8
:101FE00000E000BF00BF704769490860704764495E
:101FF000096A0143624A11627047654944390860C1
:10200000704730B500210022002400235C4D6D682C
:1020100005F00C0121B1042905D0082923D105E0E0
:102020005C4D056022E05B4D05601FE0544D6D681E
:1020300005F47012524D6D6805F48034022505EBED
:1020400092421CB9544D554305600BE04C4D6D68F0
:1020500005F400351DB1504D5543056002E04D4D6E
:102060005543056002E04B4D056000BF00BF444D85
:102070006D6805F0F0010909484D6B5C0568DD40AD
:1020800045603F4D6D6805F4E061090A434D6B5CA6
:102090004568DD4085603A4D6D6805F46051C90AB8
:1020A0003E4D6B5C4568DD40C560354D6D6805F49F
:1020B0004041890B3A4D6B5CC568B5FBF3F5056192
:1020C00030BD29B12E4A526902432D4B5A6104E0BA
:1020D0002B4A526982432A4B5A61704729B1284AD8
:1020E00092690243264B9A6104E0254A9269824331
:1020F000234B9A61704729B1214AD2690243204B90
:10210000DA6104E01E4AD26982431D4BDA617047EE
:1021100029B11B4AD2680243194BDA6004E0184A1D
:10212000D2688243164BDA60704729B1144A1269AB
:102130000243134B1A6104E0114A12698243104BA7
:102140001A61704712494039086070470F49C864E6
:1021500070470B49C87170470948406A40F0807069
:1021600007494862704701460020054A92680A40C4
:102170000AB1012000E000207047014988727047D1
:10218000001002400000FFF8FFFFF6FE0000424290
:102190008004424200127A0000093D002000002025
:1021A0003000002031490143314A1160704770B559
:1021B000002100230F22C47804B32D4C246804F4BA
:1021C000E064C4F5E064210AC1F10403CA40447824
:1021D00004FA03F18478144021430901254C067860
:1021E000A155047804F01F050124AC4005786D1159
:1021F000AD0005F1E025C5F8004109E0047804F0E0
:102200001F050124AC401C4D0678761145F8264088
:1022100070BD1A4A0A400243154B1B1F1A607047D3
:1022200039B1134A121D12680243114B1B1D1A606B
:1022300006E00F4A121D126882430D4B1B1D1A60E7
:102240007047042808D14FF0E021096941F00401EA
:102250004FF0E022116107E04FF0E021096921F021
:1022600004014FF0E0221161704700000000FA0500
:102270000CED00E000E400E080E100E080FFFF1FE3
:1022800010B50446FB48844209D101218803FFF7B9
:102290003FFF00214FF48040FFF73AFF32E0F6485D
:1022A000844209D101214804FFF73FFF00214FF488
:1022B0000030FFF73AFF25E0F048844209D10121C0
:1022C0008804FFF732FF00214FF48020FFF72DFF35
:1022D00018E0EB48844209D10121C804FFF725FF2B
:1022E00000214FF40020FFF720FF0BE0E548844277
:1022F00008D101210805FFF718FF00214FF48010D5
:10230000FFF713FF10BD2DE9F04786B005460E46D6
:102310000024A24600BFA1460027B08900B100BF3B
:102320002F462C8A4CF6FF700440F08804432C8220
:10233000AC894EF6F3100440B088318908437189A6
:1023400008430443AC81AC8A4FF6FF400440B08997
:102350000443AC8201A8FFF754FEC648874202D16D
:10236000DDF810A001E0DDF80CA0A88900F4004021
:1023700040B10AEBCA0000EB0A1031684900B0FB1B
:10238000F1F807E00AEBCA0000EB0A103168890097
:10239000B0FBF1F86420B8FBF0F0040120096421DF
:1023A00001FB1089A88900F4004040B1322000EB05
:1023B000C900B0FBF1F000F00700044308E0322050
:1023C00000EB09106421B0FBF1F000F00F000443B2
:1023D0002C8106B0BDE8F0874FF416510160002152
:1023E0008180C18001810C21418100218181704760
:1023F00010B502460020108A4FF2FF0318400B88E8
:102400004C8823438C882343CC8823431843108271
:1024100010BD0021018041808180C180704721B1C1
:10242000828942F40052828104E082894DF6FF7372
:102430001A4082817047F0B503460024002600252B
:10244000002040F66A17B94200D100BF1846C1F318
:10245000421401F01F06012707FA06F5012C01D1ED
:102460000C3004E0022C01D1103000E014301AB11D
:1024700007682F43076002E00768AF430760F0BDBD
:102480001AB1838A0B43838202E0838A8B4383825F
:102490007047028A4FF6F0731A400282028A0A439A
:1024A0000282704782894FF2FF731A4082818289CB
:1024B0000A438281704721B1828942F002028281FF
:1024C00004E082894FF6FD731A4082817047028AC8
:1024D0004FF6DF731A400282028A0A430282704773
:1024E00021B1028A42F48042028204E0028A4BF661
:1024F000FF731A4002827047C1F30802828070475E
:1025000001468888C0F308007047818941F00101C5
:1025100081817047028BD2B20283028B42EA012290
:1025200002837047028B02F47F420283028B0A43CC
:102530000283704721B1828A42F02002828204E045
:10254000828A4FF6DF731A408282704721B1828AF5
:1025500042F01002828204E0828A4FF6EF731A4042
:102560008282704721B1828A42F00802828204E0AE
:10257000828A4FF6F7731A408282704721B18289AE
:1025800042F40042828103E08289C2F30E0282811A
:10259000704721B1828A42F40062828204E0828A1A
:1025A0004FF2FF731A4082827047828A4FF6FB73A4
:1025B0001A408282828A0A438282704721B1828ACB
:1025C00042F00202828204E0828A4FF6FD731A40D2
:1025D0008282704702460020B1F5007F00D100BF23
:1025E00013880B400BB1012000E00020704701F47C
:1025F0000072B2F5007F00D100BFCA43028070476D
:1026000070B50246002400230025002040F66A161B
:10261000B14200D100BFC1F3421501F01F030126F2
:1026200006FA03F3012D02D19689334006E0022D0C
:1026300002D1168A334001E0968A33400C120126FB
:1026400006FA04F41688344013B10CB1012000E0FE
:10265000002070BD10B50022002340F66A14A1428C
:1026600000D100BF0A1201249440A3B2DC430480CD
:1026700010BD000000380140004400400048004008
:10268000004C00400050004001684FF6FE721140BF
:1026900001600021016041608160C1608D49884214
:1026A00008D18C490839496841F00F01894A083A34
:1026B00051608AE087491431884208D18549083938
:1026C000496841F0F001834A083A51607DE0814950
:1026D0002831884208D17F490839496841F470613E
:1026E0007C4A083A516070E07A493C31884208D10E
:1026F00078490839496841F47041764A083A51608E
:1027000063E074495031884208D1724908394968F8
:1027100041F470216F4A083A516056E06D496431C6
:10272000884208D16B490839496841F47001694A07
:10273000083A516049E067497831884208D16549D3
:102740000839496841F07061624A083A51603CE0DA
:102750006149884206D1011F096841F00F01021F3B
:10276000116032E05C491431884208D15A49091F8E
:10277000096841F0F001584A121F116025E05649DE
:102780002831884208D15449091F096841F4706111
:10279000514A121F116018E04F493C31884208D15C
:1027A0004D49091F096841F470414B4A121F1160DD
:1027B0000BE049495031884207D14749091F096850
:1027C00041F47021444A121F1160704710B5002275
:1027D000026847F6F0739A430C6A8B6823430C69CE
:1027E00023434C6923438C692343CC6923434C6ABC
:1027F00023438C6A23431A430260CB6843600B680F
:1028000083604B68C36010BD00210160416081603E
:10281000C160016141618161C161016241628162A6
:10282000704721B1026842F00102026004E00268D0
:102830004FF6FE731A40026070471AB103680B43EB
:10284000036002E003688B43036070474160704798
:102850000146486880B2704701460020002201F01E
:1028600080531BB11C4B083B1A6802E0194B083B14
:102870001A6802EA01030BB1012000E00020704752
:1028800000F0805119B11449091F086002E0114994
:1028900008394860704701460020002201F080534B
:1028A0001BB10D4B083B1A6802E00A4B083B1A6843
:1028B00002EA01030BB1012000E00020704700F0A4
:1028C000805119B10449091F086002E00149083923
:1028D00048607047080002400804024000206F4929
:1028E000086048608860C86048628862C8626C4856
:1028F00088630020C86370470021684A516847F622
:10290000FF629143027D83681A4343681A43C36898
:102910001A4303681A4303691A4311435F4A51601B
:10292000704700210175016041608160C1600161F3
:1029300070475C49086070475849096821F00301F5
:10294000564A1160114609680143116070475348A7
:10295000006800F00300704729B1504AD26B02436F
:102960004E4BDA6304E04D4AD26B82434B4BDA6341
:1029700070474D49086070470021484B02689A60D3
:102980001A46D1686FF30A01D0E901231A43C368DC
:102990001A4303691A431143404AD160704700212A
:1029A000016041608160C160016170473B4800691E
:1029B000C0B2704708B50146002000903748143077
:1029C000084400900098006808BD0021334B02685D
:1029D0005A6242689A621A46D16A21F0F701D0E938
:1029E00002231A4303691A4343691A4311432B4ACA
:1029F000D16270474FF0FF3101600021416081607A
:102A0000C1600161416170472448006B70472348F1
:102A100080300068704721498031086070471F4846
:102A2000806C704720491431086070471E49183186
:102A3000086070471C491C31086070471A492031F2
:102A4000086070471949086070471849091D0860F7
:102A5000704701218143154A0832116070471349BC
:102A60000C3108607047014600200C4A526B0A4046
:102A70000AB1012000E000207047084988637047D0
:102A800001460020054A526B0A400AB1012000E0CD
:102A900000207047014988637047000000800140B2
:102AA000FF07C000A00030428C053042AC0130422C
:102AB0000CB50020019000906C48006840F4803014
:102AC0006A49086000BF6948006800F4003000905F
:102AD0000198401C0190009818B90198B0F5A06FBA
:102AE000F1D16248006800F4003010B1012000907C
:102AF00001E0002000900098012843D15C48006864
:102B000040F010005A4908600846006820F00300B1
:102B100008600846006840F00200086053484068BA
:102B2000524948600846406848600846406840F49A
:102B3000806048600846406820F47C104860084681
:102B4000406840F4E81048600846006840F0807033
:102B5000086000BF4548006800F000700028F9D008
:102B60004248406820F003004049486008464068F9
:102B700040F00200486000BF3C48406800F00C0094
:102B80000828F9D10CBD10B5FFF792FF10BD10B5A4
:102B90003648006840F00100344908600846406843
:102BA00034490840314948600846006832490840C5
:102BB0002E4908600846006820F480200860084616
:102BC000406820F4FE0048604FF41F008860FFF763
:102BD000DAFF4FF000602949086010BD10B50021F0
:102BE00000200022214B5B6803F00C0121B1042975
:102BF00006D0082928D107E0214B224C236027E08A
:102C00001F4B204C236023E0184B5B6803F47010CB
:102C1000164B5B6803F48032022303EB904022B929
:102C2000194B4343174C23600DE0104B5B6803F4D2
:102C3000003323B1144B4343124C236003E0104B89
:102C40004343104C236003E00D4B0E4C236000BF48
:102C500000BF064B5B68C3F303130C4CE15C094BEC
:102C60001B68CB40074C236010BD000000100240E1
:102C7000002002400000FFF8FFFFF6FE08ED00E034
:102C800000127A003400002000093D0038000020C6
:102C900001460020704770B50546FEF7CFF904469F
:102CA0000CB1012070BD0020FCE72DE9F041074682
:102CB0000D4614461E46012E0ED9610233464FF4CE
:102CC00000722846FEF79CFBFEF7FFFB00BFFEF7F5
:102CD0001FFA0028FBD10CE061024FF40072284675
:102CE000FEF72EFBFEF7F1FB00BFFEF711FA0028FE
:102CF000FBD10020BDE8F0812DE9F04107460D46EB
:102D000014461E46012E0ED9610233464FF400725E
:102D10002846FEF760FCFEF7F1FC00BFFEF7F8F96D
:102D20000028FBD10CE061024FF400722846FEF748
:102D3000E1FBFEF7E3FC00BFFEF7EAF90028FBD158
:102D40000020BDE8F08110B5034631B101290BD058
:102D5000022904D0032912D10CE0002011E04FF425
:102D60000074146000200CE0084C646C640A146069
:102D7000002006E0054CA46C1460002001E0042053
:102D800000BF00BF10BD002070470000DC04002021
:102D900070B503460C4603E014F8015B03F8015BD1
:102DA000151EA2F10102F7D170BD30B5034601E056
:102DB00003F8011B141EA2F10102F9D130BDF0B5D8
:102DC00003461C460D46002000BF161EA2F101025C
:102DD00007D014F8017B15F801CBA7EB0C06301EC9
:102DE000F3D0F0BD024600E0521C107810B110780C
:102DF0008842F9D11078704730B502460B46002062
:102E00000446014621E001EB4100F74D55F8200052
:102E1000C8B101EB410055F820001568A84213D154
:102E200001EB4100F04D05EB800040689568A84239
:102E30000AD101EB4100EC4D05EB80000089D588FB
:102E4000A84201D103E00124491C0329DBD300BFC0
:102E5000032906D10CB9022B01D1002030BD12206C
:102E6000FCE743B901EB4100DF4D05EB80004089F1
:102E7000B0F5807F01D11020F0E70020EEE70021BF
:102E800000E0491C032906D201EB4100D64A52F862
:102E900020000028F5D1032901D00120704700202F
:102EA000FCE730B502460B4600211BE001EB410078
:102EB000CD4C54F820001468A04212D101EB41001F
:102EC000C94C04EB800040689468A04209D101EB32
:102ED0004100C54C04EB80000089D488A04200D199
:102EE00002E0491C0329E1D300BF032927D10021B7
:102EF00000E0491C032906D201EB4100BA4C54F80A
:102F000020000028F5D1032901D1002030BD01EBBC
:102F10004104B54D106845F8240001EB410405EB70
:102F2000840490686060D08801EB410405EB840460
:102F30002081002001EB410405EB8404608143B152
:102F400001EB4100A84C04EB8000408908B100204F
:102F5000DCE713B14FF4807006E001EB4100A24CB6
:102F600004EB80004089401C01EB41049E4D05EBC1
:102F700084046081481CC9E730B50246531E1A46D6
:102F8000032B1BD202EB4203974C04EB83035989BA
:102F9000B1F5807F00D1002109B14B1E99B202EB3F
:102FA0004203914C04EB8303598129B9002302EBBE
:102FB00042048D4D45F82430002000E0022030BD51
:102FC00010B5014600200DE000EB4002864B53F89F
:102FD00022208A4205D1002200EB4003824C44F8B3
:102FE0002320401C0328EFD310BD2DE9F0410446F7
:102FF00000272079F8B1256B607801232A4604F177
:103000003401FFF779FE08B1012714E00020207198
:10301000606A281AE16988420DD2E67809E0E06921
:103020000544607801232A4604F13401FFF764FE69
:10303000761E022EF3D23846BDE8F08170B5044604
:103040000D460026206BA84210D02046FFF7CDFF8A
:1030500006465EB9607801232A4604F13401FFF781
:1030600024FE10B14FF0FF3501262563304670BDB8
:1030700070B504462046FFF7B8FF0546002D59D12C
:10308000207803284FD1607901284CD142020021D9
:1030900004F13400FFF789FE552184F83212AA2189
:1030A00084F83312522084F834005221352001551F
:1030B000612136200155412137200155722184F8C4
:1030C000181284F81912412184F81A12612184F827
:1030D0001B12217C84F81C12208A010A84F81D121C
:1030E0002069010C84F81E122069010E84F81F1259
:1030F000217B84F82012A089010A84F82112E0685B
:10310000010C84F82212E068010E84F82312206A70
:10311000401C20636078012304F13401226BFFF727
:10312000EBFD00206071607800221146FFF70BFE76
:1031300000B10125284670BD0246891E9069801E97
:10314000884201D8002070479378D06A01FB0300C1
:10315000F9E72DE9F04705460C46022C02D3A86991
:10316000A04202D84FF001096CE04FF0FF392878F7
:10317000012804D002282ED003285FD142E0274640
:1031800007EB5707686A00EB57212846FFF756FF01
:1031900000B156E038467F1CC0F3080105F1340049
:1031A00010F80180686A00EB57212846FFF746FFB8
:1031B00000B146E0C7F3080105F13400405C48EA7D
:1031C000002804F0010010B14FEA181001E0C8F324
:1031D0000B00814635E0686A00EB14212846FFF7B2
:1031E0002DFF18B12DE000007C05002040F2FF10FB
:1031F00000EA440105F134000E183078717840EA95
:1032000001291EE0686A00EBD4112846FFF716FF7B
:1032100000B116E040F2FF1000EA840105F134002D
:103220000E18F0780006B17840EA0140717840EA63
:1032300001203178084320F0704902E04FF0010985
:1032400000BF00BF4846BDE8F0872DE9F0470546BE
:103250000E461746022E02D3A869B04202D84FF09C
:10326000020890E02878012804D0022844D00328DE
:103270007ED159E0B14609EB5909686A00EB592142
:103280002846FFF7DBFE8046B8F1000F00D079E05A
:10329000484609F10109C0F3080105F134000C1892
:1032A00006F0010020B1F9B2207861F31F1000E0B0
:1032B0003846207001202871686A00EB59212846A1
:1032C000FFF7BCFE8046B8F1000F00D05AE0C9F30A
:1032D000080105F134000C1806F0010010B1C7F325
:1032E000071005E0207800F0F000C7F30321084341
:1032F00020700120287145E0686A00EB16212846FD
:10330000FFF79CFE8046B8F1000F00D03AE040F293
:10331000FF1000EA460105F134000C182770380A46
:103320006070012028712DE0686A00EBD6112846F4
:10333000FFF784FE8046B8F1000F00D022E040F293
:10334000FF1000EA860105F134000C18E078000651
:10335000A17840EA0140617840EA012021780843E1
:1033600000F0704007432770380A6070380C00E0A6
:1033700005E0A070380EE0700120287102E04FF0E7
:10338000020800BF00BF4046BDE8F0872DE9F041CC
:1033900004460E46022E02D3A069B04201D802278D
:1033A00027E0002721E031462046FFF7D2FE054600
:1033B00005B91DE0012D01D1022719E0681C08B9EB
:1033C000012715E0002231462046FFF73EFF074661
:1033D00007B10DE02069401C30B12069401C20611C
:1033E000607940F0010060712E46A069B042DAD8E1
:1033F00000BF3846BDE8F0812DE9F0470446894614
:10340000B9F1000F06D1E76817B1A069B84215D825
:10341000012713E049462046FFF79BFE0646022E91
:1034200002D20120BDE8F087701C08B93046F9E7E8
:10343000A069B04201D93046F4E74F463D4600BF8F
:103440006D1CA069A84204D80225BD4201D9002004
:10345000E8E729462046FFF77CFE064606B909E064
:10346000701C08B1012E01D13046DBE7BD42E7D127
:103470000020D7E700BF6FF0704229462046FFF7D3
:10348000E4FE8046B8F1000F08D1B9F1000F05D075
:103490002A4649462046FFF7D8FE8046B8F1000F7D
:1034A0000BD1E5602069401C78B12069401E206185
:1034B000607940F00100607107E0B8F1010F02D1BE
:1034C0004FF0FF3000E0012005462846AAE72DE92D
:1034D000F04104460E46E680A568012D03D0206821
:1034E0008069A84202D80220BDE8F0812DB9206889
:1034F0000078032801D12068856A45B920680089D1
:10350000B04201D80220EFE72068876A1EE02068F9
:1035100080784FEA001812E029462068FFF719FE6C
:103520000546681C08B90120DEE7022D03D3206898
:103530008069A84201D80220D6E7A6EB08064645D6
:10354000EAD229462068FFF7F7FD0746E5600FB984
:103550000220C9E707EB161020612068343006F01E
:103560000F0100EB411060610020BDE72DE9F04143
:1035700004468846E088461CB0B208B1206910B9FC
:103580000420BDE8F08106F00F0000286BD120690F
:10359000401C2061E06828B920680089B04262D8E8
:1035A0000420EEE720688078401E00EA161000280C
:1035B00059D1E1682068FFF7CCFD0546012D01D8FF
:1035C0000220DEE7681C08B90120DAE7206880697C
:1035D000A84242D8B8F1000F01D10420D1E7E16838
:1035E0002068FFF709FF05460DB90720C9E7012D3F
:1035F00001D10220C5E7681C08B90120C1E7206895
:10360000FFF7F3FC08B10120BBE7216801F13400AA
:103610004FF400720021FFF7C8FB29462068FFF72E
:103620008BFD2168086300270EE0012021680871E6
:103630002068FFF7DAFC08B10120A2E72068006BE0
:10364000401C216808637F1C20688078B842ECD851
:103650002068006BC01B21680863E560294620686C
:10366000FFF76AFD2061E6802068343006F00F0124
:1036700000EB41106061002083E72DE9F041044632
:103680000E4600212046FFF722FF0546EDB9002730
:1036900000BF21692068FFF7D1FC054605B113E0A2
:1036A00060690078E52802D06069007820B9781C4C
:1036B0000746B04201D107E0002701212046FFF76D
:1036C00055FF0546002DE4D000BF042D00D107258D
:1036D0002846BDE8F08110B502468C7ECB7E44EAD8
:1036E00003201378032B05D10C7D4B7D44EA032383
:1036F00040EA034010BD81760B0AC3760A0C0275BE
:103700000B0E437570472DE9F04104460021204619
:10371000FFF7DDFE054615B12846BDE8F08100BF84
:1037200021692068FFF78AFC054605B116E0666945
:1037300037780FB9042511E0F07A00F0080030B9AD
:103740000B223046A169FFF73AFB00B906E00021E1
:103750002046FFF70BFF0546002DE1D000BF2846AD
:10376000DBE72DE9F04704468946042527E0216977
:103770002068FFF763FC054605B123E0D4F8148008
:1037800098F800700FB904251CE098F80B0000F0C1
:103790003F06E52F0CD000BF0F2E09D026F02000E9
:1037A000082801D1012000E00020484500D109E0AF
:1037B00000212046FFF7DAFE054605B102E0206948
:1037C0000028D4D100BF0DB1002020612846BDE8FB
:1037D000F08770B5044601212046FFF74EFF0546ED
:1037E00095B921692068FFF729FC054665B92022B3
:1037F00000216069FFF7D9FA0B22D4E90501FFF730
:10380000C7FA012021680871284670BD70B50446CA
:10381000E1882046FFF75BFE054685B921692068EF
:10382000FFF70CFC054655B9202200216069FFF71F
:10383000BCFAE520616908700120216808712846FA
:1038400070BDF0B5044601F109022669002E2CD0A6
:103850006069002310E01E465B1C855D202D00D1B1
:103860000AE0052D00D1E525092B02D12E2602F80C
:10387000016B02F8015B00BF0B2BECD3C67A0E7212
:10388000C67F3706867F47EA0647467F47EA062611
:10389000077F3E430E60077E467E47EA06268E80FF
:1038A000877DC67D47EA0626CE8000261670F0BDCD
:1038B0002DE9F35F0198D0F8008001E008F10108DC
:1038C00098F800002F28F9D098F800005C28F5D06F
:1038D000009885690B2220212846FFF766FA00260A
:1038E0003746B1464FF0080B18F809002E2825D1AD
:1038F00000BF484609F1010918F800402E2C02D1FA
:10390000B9F1030F00D303E038467F1C2C54F0E7D5
:1039100000BF2F2C06D05C2C04D0202C02DD06200A
:10392000BDE8FC9F08EB090101980160202C01DC37
:10393000242000E02020E8720020F1E700BF484684
:1039400009F1010918F80040202C03DD2F2C01D0CB
:103950005C2C00D152E02E2C01D05F450CD3BBF182
:10396000080F01D12E2C01D00620D9E708274FF0EF
:103970000B0BB006060EE2E7802C01DB46F00306D7
:10398000812C20DBFE2C1EDC484609F1010918F8C9
:1039900000A0BAF1400F02DBBAF17E0F05DDBAF1EB
:1039A000800F06DBBAF1FE0F03DCABF10100B84279
:1039B00001D80620B4E738467F1C2C5438467F1CBB
:1039C00005F800A019E02146FAA0FFF70BFA08B1AC
:1039D0000620A5E7412C04DB5A2C02DC46F0020647
:1039E00008E0612C06DB7A2C04DC46F00106A4F129
:1039F0002000C4B238467F1C2C54A0E700BF08EB5F
:103A0000090101980160202C01DC042000E0002065
:103A100004460FB9062083E72878E52801D1052060
:103A20002870BBF1080F01D1B006060E06F00300A6
:103A3000012801D144F0100406F00C00042801D143
:103A400044F00804EC7200206AE72DE9F3410446D3
:103A5000019800782F2803D0019800785C2805D1C0
:103A60000198401C01900020A06002E0206840699D
:103A7000A06001980078202807D200212046FFF797
:103A800026FD05460020606133E000BF01A9204605
:103A9000FFF70EFF054605B12AE02046FFF733FE8B
:103AA0000546A069C67A95B1042D0FD106F0200015
:103AB00040B10020A060606106F0040000B9E5E7B5
:103AC000002503E006F0040000B9052510E006F02B
:103AD000040000B10CE06769F87A00F0100008B942
:103AE000052505E039462068FFF7F5FDA060CDE724
:103AF00000BF2846BDE8FC8170B502464FF0FF309C
:103B00001568EDB1116800E0491C0D78212D02D334
:103B10000D783A2DF8D10D783A2D0FD1146814F89C
:103B2000015BA5F130030A2B07D28C4205D1032B90
:103B300003D218464D1C2946156070BDA14D28784A
:103B400000BFFAE770B504460D4600202071401E04
:103B5000206329462046FFF771FA08B1032070BDA3
:103B600094F8321294F8330241EA00204AF65521C3
:103B7000884201D00220F2E794F86D00010694F823
:103B80006C0041EA004194F86B0041EA002094F88F
:103B90006A10084320F07F408B49884201D1002001
:103BA000DDE794F88900010694F8880041EA0041B5
:103BB00094F8870041EA002094F88610084320F02A
:103BC0007F408149884201D10020C8E70120C6E733
:103BD0002DE9F74F8AB000210A9801600B98FFF792
:103BE0008BFF09900998002803DA0B200DB0BDE87F
:103BF000F08F7649099851F820400CB90C20F5E770
:103C00000A980460207878B16078FFF741F881461F
:103C100009F0010040B90C9820B109F0040008B186
:103C20000A20E3E70020E1E7002020700998607097
:103C30006078FFF730F8814609F0010008B10320F1
:103C4000D4E70C9820B109F0040008B10A20CDE7B0
:103C5000002739462046FFF775FF0546012D01D0A4
:103C60009DBB32E000261AE004F5F97000EB06185F
:103C700098F8040070B198F80B00010698F80A0053
:103C800041EA004198F8090041EA002098F808103C
:103C9000084300E0002002A941F82600761C042E0B
:103CA000E2D3002606B1761E00BF02A850F82670A7
:103CB00027B139462046FFF745FF00E002200546C0
:103CC0001DB1701C06460428EFD3032D01D101203D
:103CD0008CE70DB10D2089E73F20015D94F840008D
:103CE00041EA0020B0F5007F01D00D207EE74A2098
:103CF000015D94F84B0041EA002ABAF1000F0ED1A1
:103D000094F85B00010694F85A0041EA004194F8E7
:103D1000590041EA002094F8581040EA010AC4F81A
:103D20001CA04420005DE070E078012804D0E07819
:103D3000022801D00D2059E7E0780AFB00FA412063
:103D4000005DA070A07818B1A078411E084008B1AD
:103D50000D204BE74520015D94F8460041EA002024
:103D60002081207A00F00F0008B10D203EE74720A7
:103D7000015D94F8480041EA00200890089870B965
:103D800094F85700010694F8560041EA004194F86F
:103D9000550041EA002094F854100843089042204E
:103DA000015D94F8430041EA00200190019878B940
:103DB0000D201BE7222A2B2C3A3B3C3D3E3F5B5D0E
:103DC0007C7F00004A00002046415400700500201E
:103DD00001985044218900EB11100790DDE907019B
:103DE000814201D20D2001E7DDE90710401AA178D8
:103DF000B0FBF1FBBBF1000F01D10D20F6E6012570
:103E000040F6F670834500D302254FF6F6708345E1
:103E100000D303250BF10200A0612762019838440A
:103E2000606207983844E062032D16D1208908B1FA
:103E30000D20DBE694F86300010694F8620041EA85
:103E4000004194F8610041EA002094F860100843B2
:103E5000A062A0698000069014E0208908B90D20B6
:103E6000C4E6606A5044A062022D02D1A0694000FD
:103E700007E0207E00F00100A16901EB410100EBA9
:103E800051000690E169069800F2FF10B1EB502F47
:103E900001D20D20AAE64FF0FF302061E0608020C3
:103EA0006071032D5AD194F8641094F8650041EACA
:103EB0000020012852D1791C2046FFF7BFF8E8BB4B
:103EC0000020607194F8321294F8330241EA002025
:103ED0004AF65521884241D13720005D010636203F
:103EE000005D41EA00413520005D41EA002094F880
:103EF00034100843FE49884230D194F81B02010671
:103F000094F81A0241EA004194F8190241EA0020AB
:103F100094F818120843F74988421FD194F81F02F9
:103F2000010694F81E0241EA004194F81D0241EA9C
:103F3000002094F81C120843206100E00EE094F881
:103F40002302010694F8220241EA004194F821027A
:103F500041EA002094F820120843E0602570E6480A
:103F60000088401C80B2E4490880E0800020606145
:103F70002046FFF725F8002038E670B505462C46A8
:103F800084B1206870B12068007858B12068C0887A
:103F9000A188884206D121684878FEF779FE00F0B2
:103FA000010008B1092070BD0020FCE7F7B582B020
:103FB00016460398019001A8FFF79EFD0546002DC7
:103FC00002DA0B2005B0F0BDCC4850F8254024B1F2
:103FD0002046FEF7F5FF00202070029810B1002067
:103FE00002990870C549029841F82500029808B165
:103FF000012E01D00020E5E7002203A902A8FFF767
:10400000E7FD07463846DDE72DE9F7438CB0054666
:1040100016461DB909200FB0BDE8F08300202860C6
:1040200006F01F0626F001020DA904A8FFF7D0FD37
:104030000746002F7CD101A80A9004A80D99FFF72C
:1040400004FD0746099C6FB90CB906270AE026F063
:10405000010008B1012000E00020014604A8FEF79D
:10406000CBFE074606F01C00002862D077B1042F73
:1040700008D1FEF704FF18B104A8FFF7AAFB00E07F
:104080001220074646F00806099C09E0E07A00F095
:10409000110008B1072703E006F0040000B108276B
:1040A000002F55D106F00800002851D0FEF76BFE16
:1040B000804684F80E804FEA1821E1734FEA1841D8
:1040C00021744FEA1861617484F816804FEA182150
:1040D000E1754FEA184121764FEA186161760020B8
:1040E000E072207700216177A177E177214604987B
:1040F000FFF7F1FA814600212046FFF7FCFA012084
:1041000004990871B9F1000F22D00498D0F83080DA
:1041100049460498FFF73AF90746CFB9A9F10100DB
:104120000499C86041460498FEF788FF07460FE0EF
:1041300042E06FB9E07A00F0100008B1042707E010
:1041400006F0020020B1E07A00F0010000B107277C
:10415000B7B906F0080008B146F020060498006BD5
:10416000E8612C6226F0010008B1012000E0002087
:10417000014604A8FEF795FE6862686A00B9022746
:10418000D7B9AE710020E87121460498FFF7A3FA71
:104190002861E07F0106A07F41EA0041607F41EA9B
:1041A0000020217F0843E8600020A860A8610498EF
:1041B00028602868C088A88038462CE72DE9FF4F82
:1041C00083B0044615469A46DDF810B00020CAF8C0
:1041D00000002046FFF7D1FE0290029818B1029825
:1041E00007B0BDE8F08FE07908B1E079F8E7A07991
:1041F00000F0010008B90720F2E7D4E90210401AE4
:1042000000900098854200D9009DABE02089C0F362
:104210000800002874D120688078401EA16800EA58
:10422000512000F0FF09B9F1000F17D1A06810B9B3
:104230002069019004E061692068FEF78AFF01901F
:104240000198022802D20220E071C9E70198401CBF
:1042500010B90120E071C3E70198606161692068CD
:10426000FEF76AFF064616B90220E071B8E74E4431
:104270004FEA5528B8F1000F29D009EB0800216852
:104280008978884203D920688078A0EB09082168E2
:104290004878434632465946FEF707FD10B10120E3
:1042A000E0719DE7A07900F0400068B1A069801B33
:1042B000404509D2A169891B0BEB41204FF40072E4
:1042C00004F12801FEF764FD4FEA482740E0A069A9
:1042D000B04229D0A07900F04000C8B121684878E8
:1042E000012304F12801A269FEF706FD60B108E090
:1042F00052526141727241614800002070050020F5
:1043000013E00120E0716BE7A07920F04000A0717C
:10431000216848780123324604F12801FEF7C5FCE4
:1043200010B10120E0715BE7A6612089C0F30800AD
:10433000C0F50077AF4200D92F462089C0F30802AC
:1043400004F1280011183A465846FEF721FD00BF37
:10435000BB44A0683844A060DAF800003844CAF8CA
:104360000000ED1B002D7FF451AF002038E72DE950
:10437000FF4F83B0044615469B46049801900020E9
:10438000CBF800002046FFF7F8FD0290029818B124
:10439000029807B0BDE8F08FE07908B1E079F8E75E
:1043A000A07900F0020008B90720F2E7A0682844CD
:1043B000A168884200D20025B5E02089C0F308003A
:1043C000002877D120688078401EA16800EA51203B
:1043D00000F0FF0ABAF1000F1ED1A06838B92769B2
:1043E00057B900212068FFF707F8074604E0616924
:1043F0002068FFF701F8074607B997E0012F02D1BF
:104400000220E071C5E7781C10B90120E071C0E717
:104410006761206900B92761A07900F0400078B198
:1044200021684878012304F12801A269FEF764FCA1
:1044300010B10120E071ACE7A07920F04000A0713C
:1044400061692068FEF778FE064616B90220E07121
:104450009FE756444FEA5529B9F1000F2BD00AEBDC
:10446000090021688978884203D920688078A0EB08
:104470000A09216848784B4632460199FEF73CFC10
:1044800010B10120E07184E7A069801B48450ED27D
:10449000A069801B019A02EB40214FF4007204F1E5
:1044A0002800FEF775FCA07920F04000A0714FEACB
:1044B00049282BE013E0A069B0420FD0D4E90201F3
:1044C00088420BD2216848780123324604F1280142
:1044D000FEF7EBFB10B10120E0715AE7A6612089DD
:1044E000C0F30800C0F50078A84500D9A846218986
:1044F000C1F3080204F12801501842460199FEF761
:1045000047FCA07940F04000A07100BF01984044F2
:104510000190A0684044A060DBF800004044CBF864
:104520000000A5EB0805002D7FF447AF00BFD4E9DC
:104530000201884201D9A068E060A07940F0200023
:10454000A071002025E72DE9F04104462046FFF741
:1045500014FD0746002F4CD1A07900F02000002860
:1045600047D0A07900F0400078B121684878012355
:1045700004F12801A269FEF7BFFB10B10120BDE8DC
:10458000F081A07920F04000A071E1692068FEF779
:1045900055FD0746002F2CD1256AE87A40F020000F
:1045A000E872207B2877A089010A6977E068010C0E
:1045B000A977E068010EE97728462169FFF79BF8A3
:1045C000FEF7E1FB0646AE75310AE975310C297636
:1045D000310E69760020A8740021E974A07920F0DA
:1045E0002000A0710120216808712068FEF740FDBD
:1045F00007463846C3E770B505462846FFF7A3FFD0
:1046000004465CB92846FFF7B8FC044634B9686A2A
:10461000FEF7B2FC04460CB900202860204670BDAD
:1046200031B56846FFF768FA0446002C01DA0B2022
:1046300038BDF8490C700020FAE711B58BB00022A4
:104640000BA903A8FFF7C4FA0446ECB9CDF824D0AF
:1046500003A80B99FFF7F9F9044694B9089818B91B
:104660000399059848610CE00898C07A00F01000A2
:1046700030B108990398FFF72EF80399486100E0DC
:104680000524042C00D1052420460CB010BD2DE9D2
:10469000F04704460E462046FFF76FFC8246BAF10B
:1046A000000F02D05046BDE8F087E07908B1E0790C
:1046B000F9E7E068B04204D2A07900F0020000B946
:1046C000E668D4F808904FF00008C4F80880002E7F
:1046D00067D0206880784702B9F1000F11D0701EB2
:1046E000B0FBF7F1A9F10100B0FBF7F0814208D36C
:1046F000A9F10100791E8843A060A068361A656997
:1047000012E025697DB900212068FEF775FE054697
:10471000012D02D10220E071C5E7681C10B901200B
:10472000E071C0E725616561002D3AD023E0A079F2
:1047300000F0020038B129462068FEF75DFE05460C
:1047400035B93E4619E029462068FEF702FD0546C8
:10475000681C10B90120E071A5E7012D03D920687C
:104760008069A84202D80220E0719CE76561A068D8
:104770003844A060F61BBE42D9D800BFA0683044C0
:10478000A060C6F3080060B129462068FEF7D4FC9B
:104790008046B8F1000F02D10220E07183E708EBF8
:1047A00056282089C0F3080020B3A069404521D0D5
:1047B000A07900F0400078B121684878012304F125
:1047C0002801A269FEF798FA10B10120E0716AE7AA
:1047D000A07920F04000A07121684878012342466A
:1047E00004F12801FEF761FA10B10120E0715AE7E7
:1047F000C4F81880D4E90201884205D9A068E060B5
:10480000A07940F02000A07150464CE733B585B048
:10481000044614B9092007B030BD002206A904A837
:10482000FFF7D6F90546002D31D10498206001A884
:10483000A06120460699FFF708F905460DBB60699F
:1048400058B16069C07A00F0100028B1616904981D
:10485000FEF741FFA06000E0052595B90498C088E7
:10486000A08000212046FEF732FE05464DB9A06823
:1048700040B100212046FEF714FBE061E06900B979
:10488000122501E00020E061042D00D105250DB1C5
:10489000002020602846BEE770B504462046FFF79A
:1048A0006CFB054645B9E06918B1E069FEF764FBA9
:1048B00005460DB900202060284670BDFEB50546AE
:1048C0000E462846FFF759FB04460CBB2EB90021C3
:1048D0002846FEF7FCFD04461AE0C5F818D0002172
:1048E0002846FEF73EFF0446042C02D10020286132
:1048F00000246CB931462846FEF7A3FF0021284664
:10490000FEF734FE0446042C02D100202861002466
:104910002046FEBD33B58BB00D4600220BA903A87F
:10492000FFF756F9044684B9CDF824D003A80B99B3
:10493000FFF78BF8044644B9089828B12DB12946F1
:1049400003A8FEF77EFF00E0062420460DB030BD30
:104950002DE9F74F82B08A46002202A90498FFF79A
:1049600037F90190049804680198002870D1A06973
:10497000801E2169814203D82069CAF8000067E0DF
:1049800094F800B00026BBF1010F1CD1022700BF34
:1049900039462046FEF7DDFB804608F1010010B9DC
:1049A000012001900EE0B8F1010F02D10220019028
:1049B00008E0B8F1000F00D1761C781C0746A16909
:1049C0008842E5D33DE0A769606A00904FF0000996
:1049D000002500BFB9F1000F0ED10098421C01461E
:1049E00020460092FEF72AFB0190019800B127E0D3
:1049F00004F134054FF40079BBF1020F0CD1287893
:104A0000697840EA012000B9761CAD1CA9F10209C1
:104A100013E000004A000020E8780006A97840EA88
:104A20000140697840EA01202978084320F070406D
:104A300000B9761C2D1DA9F10409781E071EC9D1E5
:104A400000BF2661607940F001006071CAF8006023
:104A5000019805B0BDE8F08F70B504462046FFF719
:104A60008CFA054645B9E07908B1E57904E0A0790A
:104A700000F0020000B90725002D47D1D4E902104B
:104A8000884241D9A068E060A07940F02000A07180
:104A9000A06838B921692068FEF778FC0546002037
:104AA00020611DE061692068FEF753FB0646002582
:104AB000701C00B90125012E00D1022585B920689E
:104AC0008069B0420CD96FF0704261692068FEF7CE
:104AD000BCFB054625B931462068FEF757FC054664
:104AE00095B9A07900F0400070B1216848780123A1
:104AF00004F12801A269FEF7FFF808B1012503E0DF
:104B0000A07920F04000A07105B1E571284670BD84
:104B100071B593B00026012213A90BA8FFF758F82E
:104B20000446002C56D1CDF844D00BA81399FEF7BB
:104B30008CFF04462CB91198C07A00F0200000B117
:104B4000062424B902210BA8FEF756F90446002CCE
:104B500040D1109D0DB9062404E0E87A00F0010070
:104B600000B107242CBB29460B98FEF7B4FD06467E
:104B7000FEB1E87A00F01000D8B10B984069B0425D
:104B800001D1072415E020220BA903A8FEF700F9A4
:104B90000596022103A8FEF79AFC04464CB90021B1
:104BA00003A8FEF7DEFD044604B90724042C00D157
:104BB00000247CB90BA8FEF729FE04462CB926B1C7
:104BC00031460B98FEF7E2FB04461CB90B98FEF742
:104BD0004FFA0446204614B070BD2DE9F1478BB062
:104BE000FEF7D1F8064601220BA903A8FEF7F0FF55
:104BF0000546002D74D1CDF824D003A80B99FEF7FB
:104C000024FF054605B90825042D05D10998C07A69
:104C100000F0200000B10625042DEBD100210398FF
:104C2000FEF7EAFB0746002507B90725012F00D14B
:104C30000225781C00B901251DB90398FEF7D5F9A6
:104C40000546002D5BD139460398FEF775FA81467B
:104C5000039800F134044FF4007200212046FEF75F
:104C6000A4F80B2220212046FEF79FF82E2020706A
:104C70001020E072A675310AE175310C2176310EF3
:104C8000617639462046FEF736FD2022214604F1A2
:104C90002000FEF77DF82E2084F82100DDF814A016
:104CA00003980078032804D10398806A504500D106
:104CB000AA46514604F12000FEF71DFD039890F826
:104CC000028018E00398C0F8309009F10109012032
:104CD000039908710398FEF788F905460DB10DE0B8
:104CE0002DE04FF4007200212046FEF75EF8A8F197
:104CF000010000F0FF08B8F1000FE3D100BF1DB9BB
:104D000003A8FEF766FD054625B139460398FEF770
:104D10003DFB14E0089C1020E072A675310AE17595
:104D2000310C2176310E617639462046FEF7E3FCE0
:104D30000120039908710398FEF79AF90546284661
:104D40000CB0BDE8F087F7B58CB00F4614460122D1
:104D50000CA904A8FEF73CFF05460DBB01A80A906C
:104D600004A80C99FEF771FE05462DB90A98C07A81
:104D700000F0200000B1062595B9099E0EB9062560
:104D80000EE004F0270407EA0400F17AA143084387
:104D9000F0720120049908710498FEF769F905463C
:104DA00028460FB0F0BDF3B599B0012219A911A89A
:104DB000FEF70EFF0446002C7FD111980990CDF824
:104DC0005CD011A81999FEF740FE04462CB917983B
:104DD000C07A00F0200000B1062424B9022111A8F5
:104DE000FEF70AF80446002C67D1169808B9042487
:104DF00063E0169800F10B01152203A8FDF7C8FF28
:104E0000202211A909A8FDF7C3FF1AA8FEF774FE16
:104E1000002805DB09A81A99FEF717FE044600E0F2
:104E20000B2404B90824042C47D109A8FEF7D1FCAF
:104E30000446002C41D10E9D13220DF10E0105F107
:104E40000D00FDF7A5FF9DF80C0040F02000E87272
:104E5000012011990871E87A00F0100018B30B993D
:104E6000139888421FD029461198FEF734FC074654
:104E700039461198FEF760F906460EB9022412E091
:104E800031461198FEF7DAF80446119800F15405FE
:104E90004CB968782E2806D128460B99FEF72BFCD2
:104EA00001201199087144B911A8FEF7AFFC04461E
:104EB0001CB91198FEF7DCF8044620461BB0F0BD83
:104EC00073B58CB00D4601220CA904A8FEF780FE34
:104ED00006461EBB01A80A9004A80C99FEF7B5FD72
:104EE00006462EB90A98C07A00F0200000B10626C6
:104EF000A6B9099C0CB9062610E0A879A075E88827
:104F00000112E17528792076A888011261760120C6
:104F1000049908710498FEF7ABF8064630460EB0C7
:104F200070BD2DE9F74F90B090461198012803DD30
:104F3000132013B0BDE8F08F10A8FEF7DDFD0F9031
:104F40000F98002801DA0B20F3E7FC490F9851F87D
:104F500020B0BBF1000F01D10C20EAE700208BF854
:104F600000000F98C0B20C9000200B900C98FDF739
:104F700092FE0190019800F0010008B10320D8E7EB
:104F8000019800F0040008B10A20D2E700BF04AA8B
:104F900001210C98FDF7D7FE10B90498802801D2A2
:104FA0000120C6E7119808B1002000E03F208146AB
:104FB0000498A0EB09000490A8F1010000EA0800A1
:104FC00008B14FF00008B8F1000F13D14FF4FA61A7
:104FD0000498B0FBF1F00A904FF0000A01E00AF1EA
:104FE000010AD74830F81A100A988142F7D8D548F4
:104FF00030F81A80B8F5007F01D34FEA5828B8F18D
:10500000000F01D14FF00108B8F1800F01D94FF026
:1050100080080498B0FBF8F7012540F6F670874247
:1050200000D302254FF6F670874200D30325032DE7
:105030000AD1082000EB870000F2FF10460A20206A
:1050400003900020029011E0012D05D107EB4700ED
:10505000401C4008C01C01E07800001D064606F216
:10506000FF10460A01200390202002900398484434
:1050700007900798304406900299069808440590D6
:1050800005984044A0EB09000499884201D90E20FC
:105090004FE709AA03210C98FDF755FE28B9099896
:1050A00018B10998B0F5004F01D90120099009996C
:1050B00005980844401E491E88430990099905989F
:1050C000081A0990032D08D1099903980844039000
:1050D000099907980844079001E009980644DDE91A
:1050E0000301081A811B0298081AB0FBF8F7022D79
:1050F00003D140F6F670874205D3032D05D14FF654
:10510000F670874201D20E2013E7032D02D10C2046
:105110000D9010E0012D06D10498B0F5803F02D229
:1051200001200D9007E00498B0F5803F01D20420E3
:1051300000E006200D9000BF119810B1F0200E90F5
:1051400044E04FF4007200210BF13400FDF72DFE16
:105150000BF5F97401206070A0700020E0700D98CC
:105160002071FE206071049848443F21B0FBF1F0AB
:10517000FF21B0FBF1F009903F21099841EA90002E
:10518000A0710998E0713F20207200216172A17224
:10519000E172049820730498010A61730498010C69
:1051A000A1730498010EE17355218BF83212AA21E4
:1051B0008BF83312012300220BF134010C98FDF718
:1051C0009BFD08B10120B4E6F8200E900BF13404E9
:1051D0004FF4007200212046FDF7E7FD0B225AA193
:1051E0002046FDF7D5FD4FF4007A84F80BA04FEA76
:1051F0001A21217384F80D800398A0730398010A83
:10520000E17301202074032D01D1002001E04FF44F
:105210000070824684F811A04FEA1A21A174049804
:10522000B0F5803F05D20498E0740498010A217516
:1052300010E0049884F820000498C0F3072121208E
:1052400001550498C0F30741222001550498010E2E
:10525000232001550E9860753F202076002161764D
:10526000FF20A076E17684F81C904FEA192161773F
:105270004FEA1941A1774FEA1961E177FDF783FD04
:105280000990032D3ED1099884F843000998C0F392
:105290000721442001550998C0F3074145200155D5
:1052A0000998010E4620015584F82460C6F30721B1
:1052B00025200155C6F3074126200155310E272030
:1052C0000155022084F82C0000212D2001552E20AC
:1052D00001552F200155012084F83000312001555F
:1052E000062084F8320033200155802084F84000E5
:1052F000292084F84200132216A104F14700FDF78B
:1053000047FD36E0099884F827000998C0F3072183
:10531000282001550998C0F3074129200155099813
:10532000010E2A200155A675310AE175802084F806
:105330002400292084F82600132215E0700500209F
:105340007C5A0008925A0008EBFE904D53444F538C
:10535000352E30004E4F204E414D45202020204616
:105360004154333220202000FBA104F12B00FDF733
:105370000FFD552084F8FE01AA2140F2FF100155CF
:1053800001234A4621460C98FDF7B6FC08B10120DE
:10539000CFE5032D06D1012309F1060221460C9821
:1053A000FDF7AAFC079808904FF0000A61E04FF45F
:1053B000007200212046FDF7F8FC0E980990032D9D
:1053C00014D0012D01D1E94801E06FF0FF000999E7
:1053D00008430990099820700998000A607009989C
:1053E000000CA0700998000EE07019E0099860F0B8
:1053F000FF000990099820700998000A60700998C8
:10540000000CA0700998000EE070FF202071FF21B1
:105410006171A171E17120726172A1720F21E1725B
:105420000898411C02460123089121460C98FDF77B
:1054300063FC08B101207CE54FF400720021204696
:10544000FDF7B3FC012009900EE00898411C0246CC
:105450000123089121460C98FDF74EFC08B101206C
:1054600067E50998401C09900998B042EDD30AF10C
:10547000010ABAF1000F9AD0032D01D1404600E095
:105480000298824600BF0898411C024601230891F9
:1054900021460C98FDF730FC08B1012049E5AAF13E
:1054A0000100B0F1000AEED1032D46D15220207048
:1054B00060706120A0704120E070722084F8E401E7
:1054C000722140F2E51001554121401C0155612136
:1054D000401C0155781E84F8E801C0F3072140F212
:1054E000E9100155781EC0F307414FF4F5700155DE
:1054F000781E010E40F2EB100155022084F8EC01F9
:10550000002140F2ED100155401C0155401C015591
:10551000552084F8FE01AA2140F2FF100155012315
:1055200009F1010221460C98FDF7E6FB012309F180
:10553000070221460C98FDF7DFFB002211460C986C
:10554000FDF701FC08B10120F3E40020F1E42DE9AE
:10555000FC4707468846914600243E4613E06B46CA
:10556000012201A94846FEF729FE0098012800D033
:105570000DE09DF8045000BF06F8015B641C0A2D85
:1055800000D104E000BFA8F10100A042E7DC00BFA9
:105590000020307014B13846BDE8FC870020FBE7DE
:1055A000F8B504460E4600BF6568002D00DAF8BD68
:1055B00028466D1C04F10C010E543D2D0CDB6B468E
:1055C0002A462068FEF7D3FE0098A84201D10020A9
:1055D00001E04FF0FF3005466560A068401CA06008
:1055E00000BFE4E730B595B004460D4602950020B3
:1055F00003900490214602A8FFF7D2FF03980028E9
:105600000DDB01AB05A9DDE90202FEF7B0FE30B902
:1056100001990398884202D1049815B030BD4FF02B
:10562000FF30FAE730B595B004460D4602950020EC
:105630000390049004E014F8011B02A8FFF7B0FFE8
:1056400020780028F7D1039800280DDB01AB05A9CD
:10565000DDE90202FEF78BFE30B90199039888421A
:1056600002D1049815B030BD4FF0FF30FAE70FB407
:105670002DE9F04F9BB024980190002002900390F8
:1056800026A81A9000BF259810F8014B259004B960
:105690001AE1252C04D0214601A8FFF781FFF2E78B
:1056A000002006468146259810F8014B2590302CA5
:1056B00005D10126259810F8014B259006E02D2CE8
:1056C00004D10226259810F8014B259009E009EB3A
:1056D000890004EB4000A0F13009259810F8014B37
:1056E0002590302C01DB392CF1DD6C2C01D04C2CB9
:1056F00005D146F00406259810F8014B259004B911
:10570000E2E02546612D04DB7A2D02DCA5F12000C4
:10571000C5B24F2D56D006DC422D50D0432D45D07A
:10572000442D59D151E0532D04D0552D4ED0582D34
:1057300052D14EE01A9850F804BB1A904FF000086E
:1057400001E008F101081BF808000028F9D106F073
:105750000200B0B910E000004E4F204E414D4520F0
:1057600020202046415420202020200000FFFF0060
:10577000202101A8FFF714FF404608F10108484521
:10578000F6D304E01BF8011B01A8FFF709FF9BF803
:1057900000000028F6D103E0202101A8FFF700FF58
:1057A000404608F101084845F6D36CE71A9810F80E
:1057B000042BD1B21A9001A8FFF7F2FE63E7022092
:1057C00019900EE0082019900BE000BF0A201990F4
:1057D00007E01020199004E0214601A8FFF7E0FE41
:1057E00051E700BF06F0040028B11A9800681A9922
:1057F000091D1A910CE0442D05D11A9800681A99D8
:10580000091D1A9104E01A9800681A99091D1A9145
:105810008246442D06D10AF0004018B1CAF1000AB0
:1058200046F00806002700BF1998BAFBF0F100FB0C
:1058300011A0C5B21998BAFBF0FA092D06DD782C33
:1058400001D1272000E007202844C5B205F130002F
:10585000C2B238467F1C14A90A54BAF1000F01D015
:10586000102FE1D306F0080020B12D2238467F1C0E
:1058700014A90A54B84606F0010008B1302000E02F
:105880002020054603E0294601A8FFF789FE06F01F
:10589000020020B9404608F101084845F3D300BF93
:1058A000781E074614AA115C01A8FFF779FE002FA5
:1058B000F6D103E0294601A8FFF772FE404608F141
:1058C00001084845F6D3DEE600BF00201A90029892
:1058D000002810DB18AB04A9DDE90102FEF747FD43
:1058E00048B918990298884205D103981BB0BDE8C1
:1058F000F00F5DF814FB4FF0FF30F7E740EA0103CB
:105900009B0703D009E008C9121F08C0042AFAD275
:1059100003E011F8013B00F8013B521EF9D2704739
:10592000D2B201E000F8012B491EFBD270470022E1
:10593000F6E710B513460A4604461946FFF7F0FF8E
:10594000204610BD064C074D06E0E06840F001031C
:1059500094E8070098471034AC42F6D3FAF7ECFB12
:10596000A85A0008C85A00080FB4054B10B503A97F
:10597000044A029800F017F810BC5DF814FB000010
:10598000690100084C00002002E008C8121F08C18D
:10599000002AFAD170477047002001E001C1121FB0
:1059A000002AFBD170472DE9F84F99469246884668
:1059B0000546002706E025280AD051464A4690476A
:1059C0006D1C7F1C28780028F5D13846BDE8F88F7B
:1059D000002315F8011F18462E2915D115F8011FAF
:1059E00004232A290DD06FF02F022978A1F1300469
:1059F000092C09D800EB800002EB400008446D1C24
:105A0000F3E758F8040B6D1C2A78002ADDD0632ACE
:105A100007D0732A0FD0104651464A4690477F1C44
:105A20002AE018F8042B8DF8002000218DF80110D1
:105A30006E46012103E058F8046B4FF0FF315A071E
:105A40004FF0000401D409E0641C84420BDA8C425C
:105A5000FADB325D002AF7D105E0641C8C42FCDBE6
:105A6000305D0028F9D1274404E016F8010B5146B7
:105A70004A469047641EF8D26D1CA3E7000400025A
:105A80000001800040002000100008000400020017
:105A900000000080004000200010000800400020AE
:105AA0000010000800040002C85A0008000000208E
:105AB0005000000088590008185B000850000020C2
:105AC0005009000098590008000000000000000084
:105AD00000000000000000000000000000000000C6
